{
  "contractName": "ItemManager",
  "abi": [
    {
      "anonymous": false,
      "inputs": [
        {
          "indexed": true,
          "internalType": "address",
          "name": "previousOwner",
          "type": "address"
        },
        {
          "indexed": true,
          "internalType": "address",
          "name": "newOwner",
          "type": "address"
        }
      ],
      "name": "OwnershipTransferred",
      "type": "event"
    },
    {
      "anonymous": false,
      "inputs": [
        {
          "indexed": true,
          "internalType": "uint256",
          "name": "__itemIndex",
          "type": "uint256"
        },
        {
          "indexed": false,
          "internalType": "uint256",
          "name": "_step",
          "type": "uint256"
        },
        {
          "indexed": false,
          "internalType": "address",
          "name": "_item",
          "type": "address"
        }
      ],
      "name": "SupplyChainStep",
      "type": "event"
    },
    {
      "inputs": [
        {
          "internalType": "uint256",
          "name": "",
          "type": "uint256"
        }
      ],
      "name": "items",
      "outputs": [
        {
          "internalType": "contract Item",
          "name": "_item",
          "type": "address"
        },
        {
          "internalType": "string",
          "name": "_identifier",
          "type": "string"
        },
        {
          "internalType": "uint256",
          "name": "_itemPrice",
          "type": "uint256"
        },
        {
          "internalType": "enum ItemManager.SupplyChainState",
          "name": "_state",
          "type": "uint8"
        }
      ],
      "stateMutability": "view",
      "type": "function",
      "constant": true
    },
    {
      "inputs": [],
      "name": "owner",
      "outputs": [
        {
          "internalType": "address",
          "name": "",
          "type": "address"
        }
      ],
      "stateMutability": "view",
      "type": "function",
      "constant": true
    },
    {
      "inputs": [],
      "name": "renounceOwnership",
      "outputs": [],
      "stateMutability": "nonpayable",
      "type": "function"
    },
    {
      "inputs": [
        {
          "internalType": "address",
          "name": "newOwner",
          "type": "address"
        }
      ],
      "name": "transferOwnership",
      "outputs": [],
      "stateMutability": "nonpayable",
      "type": "function"
    },
    {
      "inputs": [
        {
          "internalType": "string",
          "name": "_identifier",
          "type": "string"
        },
        {
          "internalType": "uint256",
          "name": "_itemPrice",
          "type": "uint256"
        }
      ],
      "name": "createItem",
      "outputs": [],
      "stateMutability": "nonpayable",
      "type": "function"
    },
    {
      "inputs": [
        {
          "internalType": "uint256",
          "name": "_itemIndex",
          "type": "uint256"
        }
      ],
      "name": "triggerPayment",
      "outputs": [],
      "stateMutability": "payable",
      "type": "function",
      "payable": true
    },
    {
      "inputs": [
        {
          "internalType": "uint256",
          "name": "_itemIndex",
          "type": "uint256"
        }
      ],
      "name": "triggerDelivery",
      "outputs": [],
      "stateMutability": "nonpayable",
      "type": "function"
    }
  ],
  "bytecode": "0x608060405234801561001057600080fd5b5061002d61002261003260201b60201c565b61003a60201b60201c565b6100fe565b600033905090565b60008060009054906101000a900473ffffffffffffffffffffffffffffffffffffffff169050816000806101000a81548173ffffffffffffffffffffffffffffffffffffffff021916908373ffffffffffffffffffffffffffffffffffffffff1602179055508173ffffffffffffffffffffffffffffffffffffffff168173ffffffffffffffffffffffffffffffffffffffff167f8be0079c531659141344cd1fd0a4f28419497f9722a3daafe3b4186f6b6457e060405160405180910390a35050565b611c288061010d6000396000f3fe6080604052600436106200007a5760003560e01c80638da5cb5b11620000555780638da5cb5b14620000e7578063bfb231d21462000117578063cd31831e146200015e578063f2fde38b146200018c576200007a565b8063715018a6146200007f578063800fb83f14620000995780638c55174214620000b9575b600080fd5b3480156200008c57600080fd5b5062000097620001ba565b005b620000b76004803603810190620000b1919062000ea2565b6200024b565b005b348015620000c657600080fd5b50620000e56004803603810190620000df919062000e48565b620004b7565b005b348015620000f457600080fd5b50620000ff62000743565b6040516200010e9190620010d4565b60405180910390f35b3480156200012457600080fd5b506200014360048036038101906200013d919062000ea2565b6200076c565b6040516200015594939291906200112e565b60405180910390f35b3480156200016b57600080fd5b506200018a600480360381019062000184919062000ea2565b62000859565b005b3480156200019957600080fd5b50620001b86004803603810190620001b2919062000e1c565b62000aee565b005b620001c462000bf2565b73ffffffffffffffffffffffffffffffffffffffff16620001e462000743565b73ffffffffffffffffffffffffffffffffffffffff16146200023d576040517f08c379a000000000000000000000000000000000000000000000000000000000815260040162000234906200120a565b60405180910390fd5b62000249600062000bfa565b565b34600160008381526020019081526020016000206002015414620002a6576040517f08c379a00000000000000000000000000000000000000000000000000000000081526004016200029d90620011c6565b60405180910390fd5b60006002811115620002e1577f4e487b7100000000000000000000000000000000000000000000000000000000600052602160045260246000fd5b6001600083815260200190815260200160002060030160009054906101000a900460ff1660028111156200033e577f4e487b7100000000000000000000000000000000000000000000000000000000600052602160045260246000fd5b1462000381576040517f08c379a0000000000000000000000000000000000000000000000000000000008152600401620003789062001182565b60405180910390fd5b600180600083815260200190815260200160002060030160006101000a81548160ff02191690836002811115620003e1577f4e487b7100000000000000000000000000000000000000000000000000000000600052602160045260246000fd5b0217905550807fa4035636e99f06b7651a604c1019fa4e8779fe68ef27eeb74dff2de348f6199b6001600084815260200190815260200160002060030160009054906101000a900460ff16600281111562000465577f4e487b7100000000000000000000000000000000000000000000000000000000600052602160045260246000fd5b6001600085815260200190815260200160002060000160009054906101000a900473ffffffffffffffffffffffffffffffffffffffff16604051620004ac9291906200122c565b60405180910390a250565b620004c162000bf2565b73ffffffffffffffffffffffffffffffffffffffff16620004e162000743565b73ffffffffffffffffffffffffffffffffffffffff16146200053a576040517f08c379a000000000000000000000000000000000000000000000000000000000815260040162000531906200120a565b60405180910390fd5b600030826002546040516200054f9062000cbe565b6200055d93929190620010f1565b604051809103906000f0801580156200057a573d6000803e3d6000fd5b5090508060016000600254815260200190815260200160002060000160006101000a81548173ffffffffffffffffffffffffffffffffffffffff021916908373ffffffffffffffffffffffffffffffffffffffff1602179055508260016000600254815260200190815260200160002060010190805190602001906200060292919062000ccc565b508160016000600254815260200190815260200160002060020181905550600060016000600254815260200190815260200160002060030160006101000a81548160ff0219169083600281111562000683577f4e487b7100000000000000000000000000000000000000000000000000000000600052602160045260246000fd5b02179055506002547fa4035636e99f06b7651a604c1019fa4e8779fe68ef27eeb74dff2de348f6199b60016000600254815260200190815260200160002060030160009054906101000a900460ff1660028111156200070b577f4e487b7100000000000000000000000000000000000000000000000000000000600052602160045260246000fd5b836040516200071c9291906200122c565b60405180910390a26002600081548092919062000739906200140e565b9190505550505050565b60008060009054906101000a900473ffffffffffffffffffffffffffffffffffffffff16905090565b60016020528060005260406000206000915090508060000160009054906101000a900473ffffffffffffffffffffffffffffffffffffffff1690806001018054620007b790620013d8565b80601f0160208091040260200160405190810160405280929190818152602001828054620007e590620013d8565b8015620008365780601f106200080a5761010080835404028352916020019162000836565b820191906000526020600020905b8154815290600101906020018083116200081857829003601f168201915b5050505050908060020154908060030160009054906101000a900460ff16905084565b6200086362000bf2565b73ffffffffffffffffffffffffffffffffffffffff166200088362000743565b73ffffffffffffffffffffffffffffffffffffffff1614620008dc576040517f08c379a0000000000000000000000000000000000000000000000000000000008152600401620008d3906200120a565b60405180910390fd5b6001600281111562000917577f4e487b7100000000000000000000000000000000000000000000000000000000600052602160045260246000fd5b6001600083815260200190815260200160002060030160009054906101000a900460ff16600281111562000974577f4e487b7100000000000000000000000000000000000000000000000000000000600052602160045260246000fd5b14620009b7576040517f08c379a0000000000000000000000000000000000000000000000000000000008152600401620009ae90620011e8565b60405180910390fd5b60026001600083815260200190815260200160002060030160006101000a81548160ff0219169083600281111562000a18577f4e487b7100000000000000000000000000000000000000000000000000000000600052602160045260246000fd5b0217905550807fa4035636e99f06b7651a604c1019fa4e8779fe68ef27eeb74dff2de348f6199b6001600084815260200190815260200160002060030160009054906101000a900460ff16600281111562000a9c577f4e487b7100000000000000000000000000000000000000000000000000000000600052602160045260246000fd5b6001600085815260200190815260200160002060000160009054906101000a900473ffffffffffffffffffffffffffffffffffffffff1660405162000ae39291906200122c565b60405180910390a250565b62000af862000bf2565b73ffffffffffffffffffffffffffffffffffffffff1662000b1862000743565b73ffffffffffffffffffffffffffffffffffffffff161462000b71576040517f08c379a000000000000000000000000000000000000000000000000000000000815260040162000b68906200120a565b60405180910390fd5b600073ffffffffffffffffffffffffffffffffffffffff168173ffffffffffffffffffffffffffffffffffffffff16141562000be4576040517f08c379a000000000000000000000000000000000000000000000000000000000815260040162000bdb90620011a4565b60405180910390fd5b62000bef8162000bfa565b50565b600033905090565b60008060009054906101000a900473ffffffffffffffffffffffffffffffffffffffff169050816000806101000a81548173ffffffffffffffffffffffffffffffffffffffff021916908373ffffffffffffffffffffffffffffffffffffffff1602179055508173ffffffffffffffffffffffffffffffffffffffff168173ffffffffffffffffffffffffffffffffffffffff167f8be0079c531659141344cd1fd0a4f28419497f9722a3daafe3b4186f6b6457e060405160405180910390a35050565b61067e806200157583390190565b82805462000cda90620013d8565b90600052602060002090601f01602090048101928262000cfe576000855562000d4a565b82601f1062000d1957805160ff191683800117855562000d4a565b8280016001018555821562000d4a579182015b8281111562000d4957825182559160200191906001019062000d2c565b5b50905062000d59919062000d5d565b5090565b5b8082111562000d7857600081600090555060010162000d5e565b5090565b600062000d9362000d8d846200128d565b62001259565b90508281526020810184848401111562000dac57600080fd5b62000db984828562001393565b509392505050565b60008135905062000dd28162001540565b92915050565b600082601f83011262000dea57600080fd5b813562000dfc84826020860162000d7c565b91505092915050565b60008135905062000e16816200155a565b92915050565b60006020828403121562000e2f57600080fd5b600062000e3f8482850162000dc1565b91505092915050565b6000806040838503121562000e5c57600080fd5b600083013567ffffffffffffffff81111562000e7757600080fd5b62000e858582860162000dd8565b925050602062000e988582860162000e05565b9150509250929050565b60006020828403121562000eb557600080fd5b600062000ec58482850162000e05565b91505092915050565b62000ed981620012dc565b82525050565b62000eea816200132f565b82525050565b62000efb8162001357565b82525050565b62000f0c816200137f565b82525050565b600062000f1f82620012c0565b62000f2b8185620012cb565b935062000f3d818560208601620013a2565b62000f488162001518565b840191505092915050565b600062000f62601c83620012cb565b91507f4974656d206973206675727468657220696e2074686520636861696e000000006000830152602082019050919050565b600062000fa4602683620012cb565b91507f4f776e61626c653a206e6577206f776e657220697320746865207a65726f206160008301527f64647265737300000000000000000000000000000000000000000000000000006020830152604082019050919050565b60006200100c601b83620012cb565b91507f4f6e6c792066756c6c207061796d656e747320616363657074656400000000006000830152602082019050919050565b60006200104e601583620012cb565b91507f4974656d206d757374206265207061696420666f7200000000000000000000006000830152602082019050919050565b600062001090602083620012cb565b91507f4f776e61626c653a2063616c6c6572206973206e6f7420746865206f776e65726000830152602082019050919050565b620010ce8162001325565b82525050565b6000602082019050620010eb600083018462000ece565b92915050565b600060608201905062001108600083018662000edf565b620011176020830185620010c3565b620011266040830184620010c3565b949350505050565b600060808201905062001145600083018762000ef0565b818103602083015262001159818662000f12565b90506200116a6040830185620010c3565b62001179606083018462000f01565b95945050505050565b600060208201905081810360008301526200119d8162000f53565b9050919050565b60006020820190508181036000830152620011bf8162000f95565b9050919050565b60006020820190508181036000830152620011e18162000ffd565b9050919050565b6000602082019050818103600083015262001203816200103f565b9050919050565b60006020820190508181036000830152620012258162001081565b9050919050565b6000604082019050620012436000830185620010c3565b62001252602083018462000ece565b9392505050565b6000604051905081810181811067ffffffffffffffff82111715620012835762001282620014e9565b5b8060405250919050565b600067ffffffffffffffff821115620012ab57620012aa620014e9565b5b601f19601f8301169050602081019050919050565b600081519050919050565b600082825260208201905092915050565b6000620012e98262001305565b9050919050565b6000819050620013008262001529565b919050565b600073ffffffffffffffffffffffffffffffffffffffff82169050919050565b6000819050919050565b60006200133c8262001343565b9050919050565b6000620013508262001305565b9050919050565b600062001364826200136b565b9050919050565b6000620013788262001305565b9050919050565b60006200138c82620012f0565b9050919050565b82818337600083830152505050565b60005b83811015620013c2578082015181840152602081019050620013a5565b83811115620013d2576000848401525b50505050565b60006002820490506001821680620013f157607f821691505b60208210811415620014085762001407620014ba565b5b50919050565b60006200141b8262001325565b91507fffffffffffffffffffffffffffffffffffffffffffffffffffffffffffffffff8214156200145157620014506200145c565b5b600182019050919050565b7f4e487b7100000000000000000000000000000000000000000000000000000000600052601160045260246000fd5b7f4e487b7100000000000000000000000000000000000000000000000000000000600052602160045260246000fd5b7f4e487b7100000000000000000000000000000000000000000000000000000000600052602260045260246000fd5b7f4e487b7100000000000000000000000000000000000000000000000000000000600052604160045260246000fd5b6000601f19601f8301169050919050565b600381106200153d576200153c6200148b565b5b50565b6200154b81620012dc565b81146200155757600080fd5b50565b620015658162001325565b81146200157157600080fd5b5056fe608060405234801561001057600080fd5b5060405161067e38038061067e833981810160405281019061003291906100b3565b816000819055508060028190555082600360006101000a81548173ffffffffffffffffffffffffffffffffffffffff021916908373ffffffffffffffffffffffffffffffffffffffff16021790555050505061017e565b60008151905061009881610150565b92915050565b6000815190506100ad81610167565b92915050565b6000806000606084860312156100c857600080fd5b60006100d686828701610089565b93505060206100e78682870161009e565b92505060406100f88682870161009e565b9150509250925092565b600061010d82610126565b9050919050565b600061011f82610102565b9050919050565b600073ffffffffffffffffffffffffffffffffffffffff82169050919050565b6000819050919050565b61015981610114565b811461016457600080fd5b50565b61017081610146565b811461017b57600080fd5b50565b6104f18061018d6000396000f3fe6080604052600436106100385760003560e01c80632986c0e51461020d5780633c8da5881461023857806389794d00146102635761020b565b3661020b57600060015414610082576040517f08c379a000000000000000000000000000000000000000000000000000000000815260040161007990610377565b60405180910390fd5b34600054146100c6576040517f08c379a00000000000000000000000000000000000000000000000000000000081526004016100bd90610397565b60405180910390fd5b34600160008282546100d891906103f9565b925050819055506000600360009054906101000a900473ffffffffffffffffffffffffffffffffffffffff1673ffffffffffffffffffffffffffffffffffffffff163460025460405160240161012e91906103b7565b6040516020818303038152906040527f800fb83f000000000000000000000000000000000000000000000000000000007bffffffffffffffffffffffffffffffffffffffffffffffffffffffff19166020820180517bffffffffffffffffffffffffffffffffffffffffffffffffffffffff83818316178352505050506040516101b89190610360565b60006040518083038185875af1925050503d80600081146101f5576040519150601f19603f3d011682016040523d82523d6000602084013e6101fa565b606091505b505090508061020857600080fd5b50005b005b34801561021957600080fd5b5061022261028e565b60405161022f91906103b7565b60405180910390f35b34801561024457600080fd5b5061024d610294565b60405161025a91906103b7565b60405180910390f35b34801561026f57600080fd5b5061027861029a565b60405161028591906103b7565b60405180910390f35b60025481565b60005481565b60015481565b60006102ab826103d2565b6102b581856103dd565b93506102c5818560208601610459565b80840191505092915050565b60006102de6014836103e8565b91507f4974656d206973207061696420616c72656164790000000000000000000000006000830152602082019050919050565b600061031e6019836103e8565b91507f4f6e6c792066756c6c207061796d656e7420616c6c6f776564000000000000006000830152602082019050919050565b61035a8161044f565b82525050565b600061036c82846102a0565b915081905092915050565b60006020820190508181036000830152610390816102d1565b9050919050565b600060208201905081810360008301526103b081610311565b9050919050565b60006020820190506103cc6000830184610351565b92915050565b600081519050919050565b600081905092915050565b600082825260208201905092915050565b60006104048261044f565b915061040f8361044f565b9250827fffffffffffffffffffffffffffffffffffffffffffffffffffffffffffffffff038211156104445761044361048c565b5b828201905092915050565b6000819050919050565b60005b8381101561047757808201518184015260208101905061045c565b83811115610486576000848401525b50505050565b7f4e487b7100000000000000000000000000000000000000000000000000000000600052601160045260246000fdfea2646970667358221220fe8320fa9d8a56ca3166ce522915f6e69297b4b7121eca4a365312ed3440249264736f6c63430008000033a2646970667358221220ba44e7635a73ebabd22b78ffd7c3261fd78cfb1a05e2b97f2a1f1ff613098e1c64736f6c63430008000033",
  "immutableReferences": {},
  "source": "// SPDX-License-Identifier: UNLICENSED\n\npragma solidity ^0.8.0;\nimport \"@openzeppelin/contracts/access/Ownable.sol\";\nimport './Item.sol';\n\ncontract ItemManager is Ownable{\n\n     // events\n    event SupplyChainStep(\n        uint indexed __itemIndex,\n        uint _step,\n        address _item\n    );\n\n    enum SupplyChainState{\n        Created,\n        Paid,\n        Delivered\n    }\n\n    struct S_Item{\n        Item _item;\n        string _identifier;\n        uint _itemPrice;\n        SupplyChainState _state;\n    }\n\n    mapping(uint => S_Item) public items;\n    uint itemIndex;\n\n    function createItem(string memory _identifier, uint _itemPrice) public onlyOwner{\n        Item item = new Item(this, _itemPrice, itemIndex);\n        items[itemIndex]._item = item;\n        items[itemIndex]._identifier = _identifier;\n        items[itemIndex]._itemPrice = _itemPrice;\n        items[itemIndex]._state = SupplyChainState.Created;\n\n        emit SupplyChainStep(itemIndex, uint(items[itemIndex]._state), address(item));\n\n        itemIndex++;\n\n    }\n\n    function triggerPayment(uint _itemIndex) public payable{\n\n        require(items[_itemIndex]._itemPrice == msg.value, \n        \"Only full payments accepted\");\n        require(items[_itemIndex]._state == SupplyChainState.Created, \n        \"Item is further in the chain\");\n\n        items[_itemIndex]._state = SupplyChainState.Paid;\n\n        emit SupplyChainStep(\n            _itemIndex,\n            uint(items[_itemIndex]._state),\n            address(items[_itemIndex]._item)\n        );\n    }\n\n    function triggerDelivery(uint _itemIndex) public onlyOwner{\n        require(items[_itemIndex]._state == SupplyChainState.Paid, \n        \"Item must be paid for\");\n\n        items[_itemIndex]._state = SupplyChainState.Delivered;\n\n        emit SupplyChainStep(\n            _itemIndex,\n            uint(items[_itemIndex]._state),\n            address(items[_itemIndex]._item)\n        );\n\n    }\n    \n}\n",
  "sourcePath": "/Users/macbookpro/web3_py/supply-chain/contracts/ItemManager.sol",
  "compiler": {
    "name": "solc",
    "version": "0.8.0+commit.c7dfd78e.Emscripten.clang"
  },
  "schemaVersion": "3.4.6",
  "updatedAt": "2022-05-30T02:30:21.764Z",
  "networkType": "ethereum",
  "devdoc": {
    "kind": "dev",
    "methods": {
      "owner()": {
        "details": "Returns the address of the current owner."
      },
      "renounceOwnership()": {
        "details": "Leaves the contract without owner. It will not be possible to call `onlyOwner` functions anymore. Can only be called by the current owner. NOTE: Renouncing ownership will leave the contract without an owner, thereby removing any functionality that is only available to the owner."
      },
      "transferOwnership(address)": {
        "details": "Transfers ownership of the contract to a new account (`newOwner`). Can only be called by the current owner."
      }
    },
    "version": 1
  },
  "userdoc": {
    "kind": "user",
    "methods": {},
    "version": 1
  }
}